:100000000A28FF3FFF3FFF3FFE00030EC0000A0823
:10001000C1001D29BE299A21500B2828AD215B2142
:100020005003031D0C28CA21C700023047020318E1
:100030001E280D300515DC21CB011F2805114F1D91
:100040002228DD20B5304B02031C10287E21102809
:100050005008023A031D7428AD215B214F1050084F
:10006000023A031D0C28CA21C700FB3047020318BF
:100070004F1027304702031C4A2865304702031CF3
:100080004F184A2819300515DC2119300511DC21DB
:100090004F14CB010F304702031C61281530470273
:1000A000031C4F18612808300515DC211930051193
:1000B000DC2108300515DC2119300511DC21CB01CC
:1000C0004F140230470203186A280D300515DC2151
:1000D000CB016B2805114F1D6E28DD20B5304B027A
:1000E000031C2F287E212F285008033A031D922835
:1000F0005B215008033A031D0C28CA21C7000230B7
:100100004702031885280511862805150230DC21D1
:1001100005114F1D8C28DD20F1304B02031C79287E
:100120007E2179285008043A031D0C286430C80049
:10013000C901AD215B215008043A031D0C28CA21D6
:10014000C700823047020318A828C80A0319C90A41
:1001500083304702031CB0280130C802031CC903C6
:1001600000304902C93003194802031CBA28C830BC
:10017000C800C90149084804031DC128C801C80AAC
:10018000C9014908C6004808C5000310C60CC50CC3
:100190000310C60CC50C450895004808C500C50CE1
:1001A000C50C450CC03994004F1DD728DD20B53053
:1001B0004B02031C9B287E219B28CB015008C300C7
:1001C000CF1DCF1CFA28033050020318EE2803304D
:1001D000D00A5002031CEE28D001D00A5008033A7E
:1001E000031DF428D001D00A5008043A031DFA2850
:1001F0000230D000CF18CF1D1729430B012903303F
:10020000D0004308023A031D07290430D0004308F8
:10021000033A031D0D29D001D00A4308043A031DF7
:1002200013290230D0000D300515DC210511851D84
:100230001729CF10CF114F1108000B189C018C18F3
:100240008C100B1D5429F530CE0ACA0A4E02031C2D
:100250002B29CE01CB0A851D32294C0803193829D8
:10026000CC0338294C081E3A031D4F193829CC0AF3
:100270004F1E3C29CC01CD011D304C0203184F19F3
:100280005329CF144D08FF3A031DCD0A4D08FF3AFC
:10029000031D4E29CF154F15CD01CC01851D5329C6
:1002A0004F15CD01CC010B1141088A00400E83008F
:1002B000FE0E7E0E09005003031966295008023A0B
:1002C000031966295008033A031D6F29023086007E
:1002D000880045309F009601131107100511500842
:1002E000043A031D080004308600880049309F004E
:1002F000C03087100710960013150800D521C401DF
:100300000D300515DC210D300511DC210230C40A49
:100310004402031C80298B159A010A309B009C0122
:100320004F1663008B11AD215B217830DC214F1219
:10033000CB0108007030900005308E000830890035
:100340008B160B11960162309200950194010130D9
:1003500093000B178D148B170800D521323005112F
:10036000DC21C30150084302031808003230051590
:10037000DC2164300511DC21C30AB2290130C80137
:10038000C901CA01CB01CC01CD01CE01CF01D00002
:1003900083010B284230C200C20BCC2964009F1499
:1003A0009F149F18D1291E0808000230860088017A
:1003B0001F10071005110800C200CA0142084A02B6
:1003C00003180800DE29FF3FFF3FFF3FFF3FFF3FCD
:02400E00803CF4
:00000001FF
